:1000000024C03DC03CC03BC03AC039C038C037C036
:1000100036C09BC234C033C032C040C330C02FC0D2
:100020002EC02DC02CC02BC02AC029C028C027C07C
:1000300026C025C024C004C3DEC221C020C0507524
:100040006D70204C4F4E4700C20311241FBECFEFEE
:10005000CDBFDFE3DEBF2EE3A0E0BEE301C01D9213
:10006000AA35B207E1F710E0C5E2D0E003C021975E
:10007000FE0179D5C432D107D1F7F2D390C5C0CFF4
:10008000FC01508D418D252F30E0842F90E0821BA4
:10009000930B541710F00F96089501970895FC01E3
:1000A00096898789981761F0A789AE0FBF2FB11D78
:1000B0005B968C9197899F5F9F70978B90E00895D6
:1000C0008FEF9FEF0895FC0196898789981731F08B
:1000D0008789E80FF11D838D90E008958FEF9FEFE2
:1000E0000895FC0196892789892F90E04096821B0C
:1000F00091098F7099270895CF93DF93EC01E881E0
:10010000F9810680F781E02D0995EC85FD858681D2
:100110008F738683EC85FD8585818F7585838F89B7
:100120008E8B1D8ADF91CF910895CF93DF93FC01D1
:10013000908D818DA485B585981309C015968C91F5
:1001400015978F7D15968C93DF91CF910895C18D72
:10015000CE0FDF2FD11D9BA5818D8F5F8F70818F7B
:1001600080E414968C93A485B58512969C93908D0B
:10017000818D9813E9CF0484F585E02D85818F7DED
:100180008583E2CFDC011C96ED91FC910FB607FE52
:1001900007C0258125FF04C020911101222319F0F9
:1001A000248125FDC2CF08950F931F93CF93DF9332
:1001B000EC0181E08D8B988D898D981311C0EC85B1
:1001C000FD85848185FF0CC080E48483EC85FD85FA
:1001D000628381E090E0DF91CF911F910F910895AC
:1001E000062F188D1F5F1F70898D811303C0CE01EC
:1001F000C9DFFACFE88DEC0FFD2FF11D03A7188F93
:10020000EC85FD85858180628583E3CFCF93DF9385
:10021000EC018D89882359F0EC85FD85858185FD6C
:1002200003C0848186FD03C0CE01ACDFF5CFDF9132
:10023000CF910895AF92BF92CF92DF92EF92FF924B
:100240000F931F93CF93DF936C017B018B01040FFE
:10025000151FEB015E01AE18BF08C017D10759F09A
:100260006991D601ED91FC910190F081E02DC601DC
:100270000995892B79F7C501DF91CF911F910F91D6
:10028000FF90EF90DF90CF90BF90AF90089581E006
:100290000895DC01ED91FC910088F189E02D23E0C7
:1002A00030E009942FB7F8949091033E89232FBF33
:1002B000882349F08093083E2091033E982F909523
:1002C00092239093033E0895CF93DF938231D8F524
:1002D00090E0DC01A852B4472C912F3FA1F1FC0122
:1002E000EA53F447E08130E2E39FF0011124FC5F20
:1002F00061112CC026833081232399F4EC01CC5466
:10030000D4472881309721F12F3F11F17096E20FE9
:10031000F11D3FB7F894208161111DC0277F208314
:100320003FBF8E559447FC018081882361F0803166
:1003300051F48C91853008F0880F9091010A8095D6
:1003400089238093010ADF91CF9108952583D3CF2C
:10035000F0E0E0E0DECF2860E2CF60E0FC018081E9
:10036000B3CFCF93DF93823198F490E0FC01E85251
:10037000F44720812F3F61F0FC01EA53F447E0810C
:1003800030E2E39FF0011124FC5F613021F421830E
:10039000DF91CF9108958C549447EC01A881309758
:1003A00081F0AF3F71F0CF014096A80FB92FB11D7A
:1003B0009FB7F89422838C9188608C9325839FBF8C
:1003C000E7CFB0E0A0E0F4CF8F929F92AF92BF92C0
:1003D000DF92EF92FF920F931F93CF93DF93EC0185
:1003E0004A015B01D22E8D89882339F0E881F98199
:1003F0000288F389E02DCE0109950C8910E0E12CEB
:10040000811428EB92062BE0A206B10430F0B694DA
:10041000A7949794879442E0E42E1D8AF0902511CA
:1004200060E078E689E899E0A501940174D3AF2DE6
:10043000FF0CBB0BBC5F91D3DC01CB012BE0B5956E
:10044000A795979587952A95D1F7FFB6F894EC85EF
:10045000FD85009721E0A207B10524F08FEF9FEF03
:10046000A0E0B0E080879187EC85FD85D782EC85A0
:10047000FD858681897F806C8E298683EC85FD854C
:10048000858180688583909101028B89809589237D
:100490009801220F331F020F131FC00FD11F98891D
:1004A000892B8093010262E08E855BDF61E08F859E
:1004B00058DFFFBEDF91CF911F910F91FF90EF901A
:1004C000DF90BF90AF909F908F900895CF9382312F
:1004D000D0F5282F30E0F901E852F44790819F3F92
:1004E00091F1C82F2E553447F9018081803139F5BB
:1004F0006115710539F460E08C2FE6DE61E08C2F28
:10050000CF912FCF6F3F710511F461E0F5CFE0E09F
:10051000953010F0990FE1E0892F847459F0EC5F69
:10052000F0E0E85DF54F60838091010A982B90938D
:10053000010AE4CF892F827299F3EE5FF1CF603820
:100540007105CCF2E2CFCF9108951F920F920FB6B2
:100550000F9211242F933F934F935F936F938F9339
:100560009F93AF93BF938091123E9091133EA091C1
:10057000143EB091153E4091103E5091113E9A01AB
:10058000205D3C4F283E63E0360728F0285E33406C
:100590000196A11DB11D2093103E3093113E809312
:1005A000123E9093133EA093143EB093153E80915B
:1005B0000C3E90910D3EA0910E3EB0910F3E0196E3
:1005C000A11DB11D80930C3E90930D3EA0930E3E55
:1005D000B0930F3E82E080930B0ABF91AF919F9141
:1005E0008F916F915F914F913F912F910F900FBE1F
:1005F0000F901F9018951F920F920FB60F92112413
:100600002F933F934F935F936F937F938F939F931A
:10061000AF93BF93EF93FF9386E19EE386DDFF9157
:10062000EF91BF91AF919F918F917F916F915F916A
:100630004F913F912F910F900FBE0F901F901895E3
:100640001F920F920FB60F9211242F938F939F93A7
:10065000EF93FF93E091223EF091233E818181FD53
:100660001BC0908180912C3E8F5F8F7020912D3E1A
:10067000821741F0E0912C3EF0E0EA5EF14C938F5E
:1006800080932C3EFF91EF919F918F912F910F902E
:100690000FBE0F901F9018958081F4CF1F920F927C
:1006A0000FB60F9211242F933F934F935F936F9345
:1006B0008F939F933091073E51E05093460A80916B
:1006C000063E982F95279093063E813009F443C04B
:1006D000809108048095847E282F23279091053EE1
:1006E000492F422340954093053E8091043E682F58
:1006F000622346274093043E892B80958223232F33
:1007000028274091033E932F90959823942B909304
:10071000033E381308C084E690E08093013E909336
:10072000023E5093003E8091013E9091023E01971F
:100730008093013E9093023E892B59F48091003EB4
:10074000882339F08091093E822B8093093E1092D4
:10075000003E2093073E9F918F916F915F914F9143
:100760003F912F910F900FBE0F901F901895CF9330
:10077000DF93EC0161E08881F4DD60E08881DF9146
:10078000CF91A2CD1092183E1092193E88EE93E0C0
:10079000A0E0B0E080931A3E90931B3EA0931C3ED5
:1007A000B0931D3E8EEE9BE88093163E9093173ECD
:1007B00080E098E08093223E9093233E86E08093F1
:1007C000243E87E08093253E1092263E8FE0809362
:1007D000273E8EE08093283E81E08093293E109250
:1007E0002A3E10922B3E10922C3E10922D3E1092DB
:1007F0002E3E10922F3E8CE18093303E85E0809318
:10080000553E84E08093563E1092573E1092583EDB
:100810001092593E85E59EE3AADF86E59EE3A7DFB9
:1008200087E59EE3A4DF8091583E9091593E892B45
:1008300069F01092583E1092593E85E59EE38DDD99
:1008400086E59EE38ADD87E59EE387DD80E1809390
:10085000513E1092523E1092533E1092543E0895D3
:1008600088ED90E084BF9093610083E58093020659
:100870008DE08093050680E28093030681E08093FB
:1008800000068093030A8EEF8093260A8093270A3E
:100890008BE08093000A80910A0A826080930A0AA2
:1008A000789461E08091513E5CDD70E060E0809181
:1008B000513E0CDE61E08AE054DD61E08AE004DD57
:1008C00061E08BE04EDD60E08BE0FEDC61E08CE01F
:1008D00048DD60E08CE0F8DC62E081E042DD62E06F
:1008E00082E03FDD62E083E03CDD62E08FE039DD05
:1008F0008FEF9FEF80934C0A90934D0A82E0809394
:10090000400A1092410A8091450A81608093450A0D
:100910008091400A81608093400A80910006846043
:1009200080930006FF24F394C1E0D0E002E010E0E1
:1009300080910006882309F4E3C0F0920606F09245
:10094000080680910B0680FFFCCF809110069091E5
:100950001106482F80930B3E20910A3E8217B9F072
:100960009927889F9001899F300D300D1124232FE6
:100970003327880F991F821B930B8F3F910519F026
:1009800010F08FEF90E08093523E40930A3E80E259
:1009900089DC8823A9F08091583E9091593E892B9B
:1009A00069F01092583E1092593E85E59EE3D5DCE1
:1009B00086E59EE3D2DC87E59EE3CFDC489A499842
:1009C00080E470DC8823C1F08091583E9091593EBC
:1009D000019781F0C093583ED093593E61E08091D9
:1009E000553E72DC61E08091563E6EDC61E08091A4
:1009F000573E6ADC4898499A80E854DC8823D9F04D
:100A00008091513E2091533E3091543E2230310529
:100A100009F079C01092533E1092543E70E060E0AD
:100A200055DD61E08091533E9091543E029709F06C
:100A300060E08CE049DC84E035DC882381F0809143
:100A4000533E9091543E029751F0C093533ED09341
:100A5000543E6091523E70E08091513E37DD80916E
:100A6000083E82FF18C08091073E82FD14C080912D
:100A7000083E8B7F8093083E8091533E9091543E78
:100A8000029749F01092533E1092543E70E060E09D
:100A90008091513E1BDD8FB7F8949091093E8FBF36
:100AA000892F847092FF1DC09091093E8095892303
:100AB0008093093E8EE3C82E80E0D82EF601649123
:100AC000662341F086E19EE36FDBFFEFCF1ADF0A7A
:100AD000892BA1F742E050E064E07CE886E19EE3E8
:100AE000A9DB8091533E9091543E0197029708F004
:100AF0001FCF6091523E70E08091513EE7DC18CFED
:100B000081E090E826CF0093533E1093543E6091CD
:100B1000523E70E085CFA1E21A2EAA1BBB1BFD013D
:100B20000DC0AA1FBB1FEE1FFF1FA217B307E407CC
:100B3000F50720F0A21BB30BE40BF50B661F771F24
:100B4000881F991F1A9469F7609570958095909504
:100B50009B01AC01BD01CF010895B7FF0AC009D0C8
:100B6000821B930B0895EE0FFF1F0590F491E02D6B
:100B7000099409D0A59F900DB49F900DA49F800D5E
:100B8000911D11240895A29FB001B39FC001A39F9E
:100B900001D0B29F700D811D1124911D0895F8940C
:020BA000FFCF85
:100BA20010100000000000101010000000000000F3
:100BB20010000405060705040302010000010203F8
:100BC2000102030000000000010101010101020213
:100BD20002020000000010204080201008040201E0
:100BE200010204080204080100000000D4001A01F6
:100BF2004000060171004F0063004901E4017C00DE
:050C020047010D0A008E
:00000001FF
